:060000000A128A11122809
:10000800FE00030E83120313A0000408A1000A08CF
:10001800A2007F08A3000A128A11712C0A168A11FD
:1000280007282E30A4007F30A501A50A97200A12C0
:100038008A112E08A53A031D3728A430A4001C30C5
:10004800A500813097200A128A11C830A400023016
:10005800A5009F3097200A128A11C630A4000230EA
:10006800A500A1309728A530AE00F4308316A4006F
:100078000130A5006430A6009030A701A800013027
:10008800A9006A30AA00FF30AB006330AC009D3095
:10009800AD01AE00FF30AF000F30B000F130B1015C
:1000A800B200FF30B3003C30B4001E30B501B600DA
:1000B8001930B701B801B901BA01BB01BC01BD01D2
:1000C8003E14BE143E15BE113E12BE163E13BE139C
:1000D800BF01C800C830C901C600A430C7018312D7
:1000E800A7001C30A80081300A168A1135270A1289
:1000F8008A11C830A7000230A8009F300A168A115A
:1001080035270A128A11C630A7000230A800A1308C
:100118000A168A1135272E30A7007F30A801A80AB1
:100128000A168A11352FA800AA0125082A020318E1
:100138000800831603170C189D28831203132A0836
:10014800280703178D0083168C130C140C18AA2883
:1001580083120C080313A700831603170C18B02882
:10016800831203132A08280703178D0083168C139C
:100178000C140C18BD2883120C080313A9002706B9
:10018800031D9D282A082407A60084002908831334
:100198008000AA0A99283234043401344034903457
:1001A800013464340034903401346A34FF346334E5
:1001B80000349D34FF340F340034F134FF343C34C0
:1001C80000341E3400340034003400340034003469
:1001D800003427340034D0340734D0340734F434AE
:1001E8000134C834003419340034FF34FF34FF3488
:0201F800FF34D2
:100200000029FF0001308A007F08820706290A16AC
:100210008A15742CAF00B001B0010C30A400300876
:100220002A240A128A11113E84008317001B832995
:10023000AB08031D1D29AB01AB0A2F088400300A4F
:10024000831380000C30A40030082A240A128A117B
:10025000103E84002F08831780000C30A400300863
:100260002A240A128A11AD00133EAE0084000C301D
:100270008001840A8001840A8001840A8001A4002C
:1002800030082A240A128A11173E840027088000A9
:10029000840A28088000840A29088000840A2A0821
:1002A00080000C30A40030082A240A128A11123E61
:1002B00084000F3080050C30A40030082A240A1274
:1002C0008A11123E840000082B06F0392B068000AC
:1002D0000C30A40030082A240A128A11113E84002E
:1002E0000C308013A40030082A240A128A111B3E05
:1002F00084002C0880000C30A40030082A24113E11
:100300008400001708000730B00A3002031C0D29D2
:100310002F088400FF30831380000800570803195A
:10032000A229D70103176530A20116230A128A11E8
:10033000663016230A128A118316CA30D501162395
:100340000A128A1183163E1DA8298312071DAE29A1
:1003500001300A168A1128270A128A116B24BE1D41
:10036000EB294A08FF3A031DCF2934088312A7005E
:10037000831635088312A8000030A81BFF30A9009F
:10038000AA000A30B1000310A70DA80DA90DAA0DEF
:10039000B10BC329CA30AB01AB0AAC010A29CA3080
:1003A0009C230A128A11003A0319DA2901300A162D
:1003B0008A11032F071908000230A40001300A1621
:1003C0008A11D8260A128A1106306E24A400013040
:1003D0000A168A11D82ECA3016230A128A118316D9
:1003E000300844078312B100831631080318310A1C
:1003F00045078312B20083164108803A8312B30086
:100400003208803A3302031D082A3108831640025D
:10041000031C9D2A27306B24A00320020318080028
:100420003230A0000317A208031D852A03133408E5
:100430008312A700831635088312A8000030A81B7A
:10044000FF30A900AA000A30B1000310A70DA80DC3
:10045000A90DAA0DB10B252A6530AB01AB0AAC0181
:100460000A210A128A11831636088312A400831601
:1004700037088312A5000030A51BFF30A600A70097
:100480003C30A800A901AA01AB0138240A128A1144
:100490002708AA002608A9002508A8002408A70004
:1004A0000A30B1000310A70DA80DA90DAA0DB10BBC
:1004B000522A6630AB01AB0AAC010A210A128A113A
:1004C0006508FF3A03197C2A6608FF3A03197C2A5B
:1004D000831603170230A201A20A6E24A400013081
:1004E0000A168A11D8260A128A1106306E24A40030
:1004F00001300A168A11D82E831603176530A2011F
:1005000016230A128A116630162B65309C230A12B4
:100510008A11003A0319922A01300A168A11032718
:100520000A128A1166309C230A128A11003A0319B2
:1005300008008316D501D50A08006B243208440749
:100540008312B100831633080318330A4507831258
:10055000B200803AB30083164108803A8312330216
:10056000031DB62A8316400883123102031CD22AC7
:100570003E306B24A00A2002031C08003230A00089
:1005800003176530A20116230A128A11663016235A
:100590000A128A118316D501BE19080000300A1606
:1005A0008A11032F6B244508803A8312B100831609
:1005B0004108803A83123102031DE12A8316400864
:1005C000440266300318EE2A9C230A128A11003A6C
:1005D0000319F32A8316D501D50AF32A16230A1222
:1005E0008A118316D50183126508FF3A03190800A2
:1005F000831603170230A2016E24A40000300A16ED
:100600008A11D8260A128A1106306E24A4000030FE
:100610000A168A11D8260A128A11653016230A1280
:100620008A11663016238316D50108006E24A900AE
:10063000AA010C30A4002A082A240A128A11103EAA
:100640008400831700082906031D912B2A08013E08
:10065000A700003003180130A80029088400831384
:10066000000827062804031D912B0C30A4002A083B
:100670002A240A128A11113E84000C3083170013B9
:10068000A4002A082A240A128A11123E8400F0309B
:1006900080050C30A4002A082A240A128A11123E6E
:1006A00084000F3080050C30A4002A082A240A1286
:1006B0008A11A700133EA80084000C308001840A30
:1006C0008001840A8001840A8001A4002A082A2467
:1006D0000A128A11A700173EA80084000C3080017E
:1006E000840A8001840A8001840A8001A4002A0807
:1006F0002A240A128A11113E84000C308013A400AF
:100700002A082A240A128A111B3E84000C30800118
:10071000A4002A082A240A128A11103E84008001AB
:10072000962B0730AA0A2A02031C192B29088400D9
:10073000FF308313800008006E24A900AA010C304A
:10074000A4002A082A240A128A11103E8400831762
:1007500000082906031D242C2A08013EA7000030AA
:1007600003180130A8002908840083130008270615
:100770002804031D242C0C30A4002A082A240A1261
:100780008A11113E84008317801F00340C30A400AE
:100790002A082A240A128A11113E84000C30001300
:1007A000A4002A082A240A128A11123E8400F0307A
:1007B00080050C30A4002A082A240A128A11123E4D
:1007C00084000F3080050C30A4002A082A240A1265
:1007D0008A11A700133EA80084000C308001840A0F
:1007E0008001840A8001840A8001A4002A082A2446
:1007F0000A128A11A700173EA80084000C3080015D
:10080000840A8001840A8001840A8001A4002A08E5
:100810002A240A128A11113E84000C308013A4008D
:100820002A082A240A128A111B3E84000C308001F7
:10083000A4002A082A24103E84008001290884008C
:10084000FF308313800001340730AA0A2A020318FC
:1008500000349F2BA600A50124082618A507031025
:10086000A40D0310A60CA608031D2C2C25080800B7
:10087000AC01AD01AE01AF01241C522C2808AC071D
:10088000290803110318013E031DAD072A080311AF
:100890000318013E031DAE072B0803110318013E88
:1008A000031DAF070310A80DA90DAA0DAB0D031072
:1008B000A70CA60CA50CA40C2708260425042404C8
:1008C000031D3C2C2F08A7002E08A6002D08A5000C
:1008D0002C08A400080083160313080083120313D6
:1008E00008004E260A128A110B198B1EAD2CB3304C
:1008F0006E278100DC260A128A11B9240A128A1195
:100900006B27AE0A2E08023A031D882CAE01FC1696
:10091000AF0A2F08293A031D952CAF017C17BC267E
:100920000A128A114E260A128A116B27B00A300861
:100930003F3A031D9D2CB001FC17B10A3108813AE2
:10094000031DA42CB1017C160A168A15FA240A127A
:100950008A114E260A128A110B116E272308FF00F6
:1009600022088A0021088400200E8300FE0E7E0EDD
:100970000900FA016B27AD0AAD1FC02CFA01FA0A73
:100980004E260A128A118E2DFF30F700F801031748
:10099000641CD22C7A08031D641ECF2CD22CBF30CD
:1009A000F705F801E41CDC2C7A08031DE41ED92CA1
:1009B000DC2CFB30F705F801641DE62C7A08031DDA
:1009C000641FE32CE62CFE30F705F801E41DA62D8C
:1009D0007A08031DE41FED2CA62DDF30F705082D46
:1009E00003175D08123E840098300318013E6E27FD
:1009F000FF000A168A1500200A128A11F700F80172
:100A00007A080319A62D6B27631CA62DFF30F7006B
:100A1000F801A62D03175E08123E840098300318D3
:100A2000013E6E27FF000A168A1500200A128A115D
:100A3000F700F8016B27E31D202DF730F705F801CB
:100A40007A080319A62DE318062DA62D0330F90008
:100A500003175F08123E840098300318013E6E278A
:100A6000FF000A168A1500200A128A11F700F80101
:100A70007A080319A62D6B276319062DA62D0230BF
:100A8000F90003176008123E840098300318013EF5
:100A90006E27FF000A168A1500200A128A11F70035
:100AA000F8017A080319A62D6B27631A062DA62DC7
:100AB000F901F90A03176108123E840098300318FF
:100AC000013E6E27FF000A168A1500200A128A11BD
:100AD000F700F8016B27E31F702DF730F705F801D9
:100AE0007A080319A62DE31A062DA62DF90103177E
:100AF0006208123E840098300318013E6E27FF0002
:100B00000A168A1500200A128A11F700F8017A08DD
:100B10000319A62D6B27631B062DA62D712723080D
:100B2000013A0319762D033A0319582D063A031991
:100B30003F2D0C3A0319262D183A03190A2D303A85
:100B40000319F02C603A0319C42CA62D4E260A1264
:100B50008A117708F800F70171272308F704831238
:100B600010300713F6007808F3007708F2007603D8
:100B7000013EBD2D0310F30CF20CFF3E031DBA2DF8
:100B8000721CC52D6E278716C72D6E278712000091
:100B90006E27871100006E27871500006E278711CA
:100BA00000004E260A128A11F60BB32D6E27071786
:100BB00000000000000010307127230203183B2EB4
:100BC0008312051EF02D0130F200790AE92D031081
:100BD000F20DFF3E031DE72D72086B27EB04FD2D80
:100BE0000130F200790AF62D0310F20DFF3E031DCD
:100BF000F42D7208FF3A6B27EB056E27051E0D2EAC
:100C00000130F200790A062E0310F20DFF3E031D9B
:100C1000042E72086B27EB041A2E0130F200790AB9
:100C2000132E0310F20DFF3E031D112E7208FF3A22
:100C30006B27EB056E27851E2C2E0130F2007908FC
:100C4000043E013E252E0310F20DFF3E031D232E10
:100C500072086B27EB043B2E0130F2007908043E4A
:100C6000013E342E0310F20DFF3E031D322E72089A
:100C7000FF3A6B27EB050313230B412E03176B0879
:100C8000E50003130310A30CA308031D492E4030F5
:100C90004A2E2308F400F501A3004E2E8B180B1EDC
:100CA00008007127560803190800011F5C2E0B125B
:100CB00001138B100B16BA2E0317A80A280B822ECD
:100CC0006E278F018E010C101014762E831287135D
:100CD0006E2E83128713722E831287170712732EBC
:100CE00083128717071600000000BA2E83165808D3
:100CF000003A0319662E013A0319692E033A0319C3
:100D00006C2E702EA8016E2710100B12831601177F
:100D10008312861687170716000000006E270C182E
:100D2000B72E0E08F000F10183160310580D9A3EFD
:100D30008400700883178000840A71088000831281
:100D40000F08F000F101F100F00183160310580DB7
:100D50009A3E840070088004840A7108800403307D
:100D6000D80A5802031CB82ED8017D14B82E0C10D6
:100D70008316D6018B1008007D180800031356084F
:100D80000319CE2ED60101170B128B108312871771
:100D90000716000000006E2786160800D601D60A46
:100DA000831287170716000000008B1071270117A8
:100DB0000B168312861208007C1105187C15FC1195
:100DC0006E278518FC156E27640CF200F20C720C6D
:100DD0000139F30000307C190130730603190F2F1D
:100DE00000307C190130F200F20DF20DF20D6408B2
:100DF0007206F7397206E4007C19012F8316D101BF
:100E00000F2F023083165202031C0D2F05305202A1
:100E100003180D2F831264150F2F8312641183168C
:100E2000D10A4E260A128A116E27640E0139F20089
:100E30000030FC190130720603193B2F0030FC19F9
:100E40000130F200F20E64087206EF397206E40017
:100E5000FC192D2F8316D2013B2F0B308316510224
:100E6000031C392F163051020318392F83126415D1
:100E70003B2F8312641183164130D20A51020318AA
:100E8000452F41305202031C472F831264118312F5
:100E9000640CF200720C0139F300640C0139730622
:100EA00003195C2F641D572F6E27E414592F6E27EA
:100EB000E4106B27A9016A2F6B271530A90A2902B4
:100EC000031C6A2F6E27E41C682F6E2764146A2F98
:100ED0006E2764104E2E8316031708008312031327
:100EE000080083160313080069100A168A15A02447
:100EF0000A128A110A128A11EC270A128A110A169A
:100F00008A15B2240A128A1183120730AA01A90194
:100F1000A800D030A7006330AB01AB0AAC010A12C5
:100F20008A110A210A128A110A168A11D3270A1273
:100F30008A1163300A128A119C230A128A11003A1C
:100F40000319992F0A168A11C5270A128A110A1243
:100F50008A1115200A128A110830A40000300A16DE
:100F60008A11D8260A128A110A168A156C240A12C6
:100F70008A11FC1EC12FFC120A168A1551260A126C
:100F80008A117C1B7C13FC1BFC137C1ED22F7C1251
:100F900083120313691CD12F0A168A152D270A12F2
:100FA0008A1164000A128A157F240A128A11003AF3
:100FB0000319E22F0A168A15C7240A128A1183120E
:100FC0000313691483120313691CB92F0A168A11BB
:100FD00049200A128A11B92FB330811181120114EC
:100FE000811001158312810024308B168B1790001D
:0E0FF00083160C1083120C108F018E01080066
:1010000064008001840A04060319003404060128E0
:10101000B500B601B701B41F3028B309B409B30A4B
:101020000319B40A3408803AFF0080307F02031DA0
:101030001B2864303302031C2D280A30E620A4004C
:10104000A5013408A7003308A600C2230A128A1596
:101050002508B4002408B300B2011230E620572856
:101060003408803AFF0083307F02031D3928E830BE
:101070003302031C4B280A30E620A400A5013408E3
:10108000A7003308A600C2230A128A152508B40057
:101090002408B300B2016430E620A400A50134089E
:1010A000A7003308A600C2230A128A152408B80034
:1010B000350803196428E920E313E62032080319F0
:1010C0006C28E920E3176C28E920E311E6203208B8
:1010D00003196C28E920E3150A30E620AC00AD01C5
:1010E000A400A5013408A7003308A600C2230A12F1
:1010F0008A152508AF002408AE00A9200A128A1517
:101100002C08B6000A30AC00AD013408AF0033083B
:10111000AE00A9200A128A152C08B7003508031959
:101120009D283808E920E200E6203608E920E100A1
:10113000E6203708E920E00008003808E920DF0051
:10114000E6203608E920DE00E6203708E920DD0049
:101150000800B101AF1FB328AE09AF09AE0A0319E9
:10116000AF0AB101B10AAD1FBA28AC09AD09AC0A8A
:101170000319AD0A2D082C040319D928B001B00AAF
:10118000AD1BC6280310AC0DAD0DBF282D082F02D6
:10119000031DCC282C082E02031CD5282C08AE02D7
:1011A0002D08031CAF03AF020310AD0CAC0CB00B49
:1011B000C62831080319E128AE09AF09AE0A0319A0
:1011C000AF0A2F08AD002E08AC00080083120313ED
:1011D000080083160317080083169B30E001E10125
:1011E000E2002630840098308312FF000A168A1528
:1011F00000200A128A15DA000A168A1500200A123F
:101200008A15DB005802031D07295A085702031CE0
:101210000F293430D701D800C230D90008005C3023
:1012200084009930FF000A168A1500200A128A15D8
:10123000DA000A168A1500200A128A15DB005808FF
:101240005B02031D252957085A02031C63299B30A2
:10125000B900D330BA01B907031CBA0369233908AE
:10126000D7003A08D8003B08D90008006108620698
:1012700003199A2961088312DA009830DB01031000
:10128000DA0DDB0D5B07FF0026305A0784000318D8
:10129000FF0A0A168A1500200A128A15DC000A16AF
:1012A0008A1500200A128A15DD005802031D5A29EA
:1012B0005C085702031C602983166108E200632959
:1012C00083166108E000831662088312DA00983002
:1012D000DB010310DA0DDB0D5B07FF0026305A0738
:1012E00084000318FF0A0A168A1500200A128A15BC
:1012F000DC000A168A1500200A128A15DD0058083B
:101300005D02031D852957085C0203189A290230E3
:10131000A400A5018316620860078312A600A70136
:10132000A70DC2230A128A1524088316E10060065D
:10133000031D3629831660088312B900BA0183168B
:1013400062088312B902031CBA03692339088316A1
:10135000DD0083123A088316DE0083123B088316F1
:10136000DF0062088312DA009830DB010310DA0D27
:10137000DB0D5B07FF0026305A0784000318FF0AC5
:101380000A168A1500200A128A15DC000A168A1528
:1013900000200A128A15DD00831660088312DE0021
:1013A0009830DF010310DE0DDF0D5F07FF002630F0
:1013B0005E0784000318FF0A0A168A1500200A1225
:1013C0008A15E0000A168A1500200A128A15E10023
:1013D0005C086002B9005D08031C5D0A6102BA0086
:1013E00099220A128A153908BC003A08BD003B0848
:1013F000BE0083165D088312BF0083165E08831249
:10140000C00083165F088312C10007243C088316BE
:10141000DD0083123D088316DE0083123E0883162A
:10142000DF0083125808BA005708B9008316620813
:101430008312DA009830DB010310DA0DDB0D5B0755
:10144000FF0026305A0784000318FF0A0A168A157F
:1014500000200A128A15DC000A168A1500200A12DA
:101460008A15DD005C08B9025D08031CBA03BA02E4
:1014700099220A128A153908BF003A08C0003B08B1
:10148000C10083165D088312BC0083165E088312B8
:10149000BD0083165F088312BE0037270A128A1523
:1014A0003C08CB003D08CC003E08CD008316620806
:1014B0006F240A128A153908CE003A08CF003B087B
:1014C000D000A9220A128A154B088316DA0083126B
:1014D0004C088316DB0083124D088316DC00831250
:1014E0003430CB01CC00C230CD0083165A088312B1
:1014F000CE0083165B088312CF0083165C0883122C
:10150000D000A9224B088316DA0083124C088316F8
:10151000DB0083124D088316DC005A088312D700C3
:1015200083165B088312D80083165C088312D900E7
:1015300008003908A4003A08A5008E30A601A700CB
:10154000A80184232408B9002508BA002608BB0096
:1015500008004B08D1004C08D2004D08D3000310FE
:10156000520D530DD6004E08D1004F08D20050083E
:10157000D3000310520D530DD50056080319CC2A81
:101580005508560255080318D42AD1005608D1022E
:1015900019305102031CD32A4E08CB004F08CC004F
:1015A0005008CD00080055080319080056085502D8
:1015B0000318E22A5608D1005508D1021930510209
:1015C000031808000630D400CD1BD417D01B5417C5
:1015D000CC17CD01CF17D001550856020318092B9F
:1015E0000310CE0DCF0DD00DD503550856060319A7
:1015F000042BD403540807390319042BF02A0310D1
:10160000CD0CCC0CCB0CD60A560855060319252B4D
:10161000FF2A560855020318252B0310CB0DCC0DBD
:10162000CD0DD603550856060319212BD4035408B3
:1016300007390319212B0D2B0310D00CCF0CCE0C26
:10164000D50A56085506031D1C2BD41F302BFF301E
:10165000CB06CC06CD06CB0A0319CC0A0319CD0A5A
:10166000541F3B2BFF30CE06CF06D006CE0A0319FF
:10167000CF0A0319D00AD4014B08CE074C08031136
:1016800003184C0A031DCF074D08031103184D0A18
:10169000031DD007D01F572BFF30CE06CF06D00634
:1016A000CE0A0319CF0A0319D00AD401D40A4E086E
:1016B000A4004F08A5005008A6005608A70054082B
:1016C000A80084232408CB002508CC002608CD00E0
:1016D0000800BC01BA1F732BB909BA09B90A03196A
:1016E000BA0ABC01BC0A3908A4003A08A5008E3029
:1016F000A601A7003C08A80084232408B9002508F7
:10170000BA002608BB000800270803198C2B2608FE
:1017100025042404031D952BA401A501A60108009E
:10172000A70A0310A60CA50CA40CFE30260503196D
:10173000A42B902BA70AA40A0319A50A0319A60A29
:101740000310A60CA50CA40CFF3026050319AE2B24
:101750009A2BA7030310A40DA50DA60DA51FA92B59
:10176000271CA5130310A70C2708AB00AA01A90189
:101770002908A4042A08A5042B08A6042808031D88
:10178000A6170800A901A51FCC2BA409A509A40A26
:101790000319A50AA901A90AA71FD52BA609A709FC
:1017A000A60A0319A70A0130A906AA01AB01250858
:1017B00024040319FA2BA801A80AA51BE32B031084
:1017C000A40DA50DDC2B0310AA0DAB0D25082702D7
:1017D000031DEC2B24082602031CF62B2408A6026A
:1017E0002508031CA703A7022A140310A50CA40CA8
:1017F000A80BE32B29080319022CAA09AB09AA0A92
:101800000319AB0A2B08A5002A08A40008003F080A
:10181000C2004008C3004108C4000310430D440D3A
:10182000C900C908031D182CBC01BD01BE01080078
:101830003C08C2003D08C3003E08C4000310430D2D
:10184000440DCA00CA08031D292CBC01BD01BE01FC
:1018500008008930C601C701C8014A07C200C90291
:101860004108CA003E08CA068030CA051830C017B1
:10187000C101BD17BE01C5000310C60DC70DC80DBF
:101880003E084102031D4A2C3D084002031D4A2C1C
:101890003C083F02031C582C3C08BF023D08031CB7
:1018A0003D0FC0023E08031C3E0AC102461403104D
:1018B000BF0DC00DC10DC50B3C2C4608A400470848
:1018C000A5004808A6004908A7004A08A8008423E4
:1018D0002408BC002508BD002608BE0008008312AD
:1018E000BC00A4008E30A501A601A700A801842396
:1018F0002408B9002508BA002608BB0008007D1C92
:101900000034FA27DC0103105C0D9A3E8400831733
:101910000008840A0004031D8F2C7D10003403305E
:10192000DC0A5C02031C842C1F08FD27B200FA2786
:101930001E08FD27B100FA271B08FD27B400FA276F
:101940001A08FD27B300C4260A128A15831603104D
:10195000500DB23E8400831231088000840A3208A0
:101960008000FA271F08FD27B200FA271E08FD276E
:10197000B100FA271D08FD27B400FA271C08FD272F
:10198000B300C4260A128A1583160310500DBC3EFC
:101990008400831231088000840A320880000530F8
:1019A0007D108316D00A5002031C00340530D0018C
:1019B0008312A400B230A501D2250A128A15250887
:1019C000FA27B300FD272408FA27B2000530FD27C7
:1019D000A400BC30A501D2250A128A152508FA27D1
:1019E000BD00FD272408FA27BC003308FD27D800D6
:1019F000FA273208FD27D700EC200A128A1557086B
:101A0000BF005808C0005908C1002030BC01BD000B
:101A10004130BE0037270A128A153C08AC003D0849
:101A2000AD003E08AE0063260A128A152D08FA277B
:101A3000D900FD272C08FA27D8003D08FD27D8003B
:101A4000FA273C08FD27D700EC200A128A15570810
:101A5000BF005808C0005908C1002030BC01BD00BB
:101A60004130BE0037270A128A153C08AC003D08F9
:101A7000AD003E08AE0063260A128A152D08FA272B
:101A8000DB00FD272C08FA27DA0069080B3AB8308A
:101A900003196806031D572D5908E9005808E80086
:101AA0005B08E7005A08E6000130FD1408006808EA
:101AB000C8006908C9000030C91BFF30CA00CB004C
:101AC0000430FD27E2000310FA27C80DC90DCA0D26
:101AD000CB0DFD27E20B632DFA276608CC006708C3
:101AE000CD000030CD1BFF30CE00CF000430FD27ED
:101AF000E2000310FA27CC0DCD0DCE0DCF0DFD2742
:101B0000E20B792DFA275808D0005908D10000308F
:101B1000D11BFF30D200D3000430FD27E2000310B8
:101B2000FA27D00DD10DD20DD30DFD27E20B8F2D4D
:101B3000FA275A08D4005B08D5000030D51BFF30C7
:101B4000D600D7000430FD27E2000310FA27D40D99
:101B5000D50DD60DD70DFD27E20BA52DFA27490887
:101B6000E9004808E8005008E8070318E90A5108A6
:101B7000E9070530FF00690DE90CE80CFF0BBB2DF0
:101B80004D08E7004C08E6005408E6070318E70A8A
:101B90005508E7070530FF00670DE70CE60CFF0B63
:101BA000CC2D0134B000AE01AF012408FF3EA600E9
:101BB00025080318013EFF3EA7002F02031DE22D5A
:101BC00026082E0203184C2EB101B2012E08240261
:101BD000A6002F08031C2F0A2502A7002608FF3E97
:101BE000A80027080318013EFF3EA9003202031D8A
:101BF000FB2D280831020318482E0310310D300741
:101C0000A60084000008A700840A0008A8000310AA
:101C1000310D3007A900023E84000008AA00840AA2
:101C20000008AB0028082B02031D182E27082A02E3
:101C30000318442E0310310D3007A600023E840025
:101C40000008AC00840A0008AD000310310D300715
:101C5000A60084000008A700840A0008A80003105A
:101C6000310D3007A900023E840027088000840A55
:101C7000280880000310310D3007A60084002C08CE
:101C80008000840A2D088000B10A0319B20AE62DEB
:101C9000AE0A0319AF0AD52D2408FF3EA600250879
:101CA0000318013EFF3EA7000310A70CA60C260850
:101CB000A80028073007A90084000008A400840AAF
:101CC0000008A50008002C08B0002D08B1002E085F
:101CD000B2000310310D320DB800B808031D752E87
:101CE000AC01AD01AE01AF0108002C08B0002D0819
:101CF000B1002E08B20017300310B20CB10CB00CBA
:101D0000FF3E031D7C2E3008B300AD17AE012C083A
:101D1000B4002D08B5002E08B6008E30B701B80209
:101D2000B81F9F2E3808803A8F3E031C702E031078
:101D3000B70CB60CB50CB40CB80F972EAD2E1830EE
:101D400038020318702EB8080319AD2E0310B40D15
:101D5000B50DB60DB70DB803A32E33080319BB2E6E
:101D6000B409B509B609B709B40A0319B50A0319C4
:101D7000B60A0319B70A3708AF003608AE003508AF
:101D8000AD003408AC0008003108B5003208B600D8
:101D9000B701B8010310B50DB60DB70DB80D330876
:101DA000B9003408BA00BB01BC0138083C02031D6D
:101DB000E32E37083B02031DE32E36083A02031DCB
:101DC000E32E35083902031CE92EFF30B100B200C2
:101DD00008003308A4003408A5000330A601A701B9
:101DE000AB01AA01A900E830A8000A128A11382420
:101DF0000A128A152708C0002608BF002508BE0061
:101E00002408BD003108A4003208A500A601A701DE
:101E10000310A40DA50DA60DA70D3308B5003408B9
:101E2000B600B701B8013508A4023608031C360F06
:101E3000A5023708031C370FA6023808031C380F09
:101E4000A7024008AB003F08AA003E08A9003D08D1
:101E5000A800B2272708C0002608BF002508BE003A
:101E60002408BD003E08B2003D08B10008003C084F
:101E7000C2003D08C3003E08C4000310430D440DDA
:101E8000C500C508031D482FBC01BD01BE010800E7
:101E90003F08C2004008C3004108C4000310430DBE
:101EA000440DCA00CA08031D592FBC01BD01BE0163
:101EB00008004A087B3EC5073E08CA004108CA061A
:101EC0008030CA050730BD17C017C101C601C70160
:101ED000C801C9003C1C7A2F3F08C60740080311FF
:101EE0000318400A031DC707410803110318410ADC
:101EF000031DC8070310BE0CBD0CBC0C0310BF0DA6
:101F0000C00DC10DC90B6A2F0930C9003C1C962FAA
:101F10003F08C607400803110318400A031DC707FE
:101F2000410803110318410A031DC8070310BE0C22
:101F3000BD0CBC0C0310C80CC70CC60CC90B862FFB
:101F40004608A4004708A5004808A6004508A700C1
:101F50004A08A80084232408BC002508BD002608E0
:101F6000BE000800AC01AD01AE01AF012708260498
:101F7000250424040319F12FB001B00AA71BC62FB2
:101F80000310A40DA50DA60DA70DBD2F0310AC0DBC
:101F9000AD0DAE0DAF0D27082B02031DD92F26085E
:101FA0002A02031DD92F25082902031DD92F240831
:101FB0002802031CEB2F2408A8022508031C250F68
:101FC000A9022608031C260FAA022708031C270FB4
:101FD000AB022C140310A70CA60CA50CA40CB00B80
:101FE000C62F2F08A7002E08A6002D08A5002C0834
:101FF000A4000800831603170800831203130800C7
:10200E00FC01FD01E901E701E8018313CE308400F4
:10201E00DA300A128A1500200A168A1183179030B8
:10202E008400C8300A128A1500200A168A11103050
:10203E00840064300A128A1500200A168A11EC30C8
:10204E00FD001C30FE008030FF00DD3084000A16DB
:10205E008A1593240A168A118313CE30FD000030A0
:10206E00FE00CF30FF00A03084000A168A1593249C
:10207E00FF30E400FF30E500FF30E60083010A1276
:10208E008A11742FFF30C200BD01D5270A168A119E
:10209E00E827C3004303031960284308033A0319D2
:1020AE0060284308053A031960284308073A031DC0
:1020BE00752883164C08FF3A031D7528FA308312D3
:1020CE00A700CC30A801A901AA01AB01AB0AAC0153
:1020DE000A128A110A210A168A118714CC300A12A2
:1020EE008A119C230A168A11003A0319B52E8710FD
:1020FE00B52E13308312B200B300B4000030A52702
:10210E000A168A111330E827B200B300B40001306A
:10211E00A5270A168A11E8270130A401D8260A1627
:10212E008A11003003270A168A11003028270A1652
:10213E008A11E82707108316D901D701D70A83120F
:10214E00430BB1280A128A1115200A168A1183161A
:10215E00A201A20A83124308093A031DCA2E0430B3
:10216E008316A1000330DF298312B201B20A83164F
:10217E0041088312B400831640088312B300003066
:10218E000A128A1508200A168A11E8270130A401BE
:10219E00D8260A168A11E827071483163E1EF12840
:1021AE0042084807C40043080318430A4907C500FC
:1021BE008312B201B20A831649088312B400831641
:1021CE0048088312B30001300A128A1508200A1635
:1021DE008A11BC294708C5004608C4008312B20103
:1021EE00B20A831647088312B40083164608831278
:1021FE00B30001300A128A1508200A168A11BC296A
:10220E0083163E1BD42908308312A4000030D82632
:10221E000A168A110313A201D4291330AA01A901A7
:10222E00A8008830A700CD30AB01AB0AAC010A1272
:10223E008A110A210A168A1102308316BA298316C8
:10224E003E1E4B29C80A0319C90A2D08803A83126B
:10225E00B90083164908803A83123902031D3A29C0
:10226E00831648082C0203184129EB272D08C900B4
:10227E002C08C800C830E827A7000230A8009F30FD
:10228E0035270A168A11D429C60A0319C70A29083E
:10229E00803A8312B90083164708803A83123902B6
:1022AE00031D5C2983164608280203186329EB27B1
:1022BE002908C7002808C600C630E827A700023044
:1022CE00A800A13035270A168A11D42983163E1E7E
:1022DE009329FF30C807031CC9034908803A8312AB
:1022EE00B90083162F08803A83123902031D822902
:1022FE0083162E08480203188929EB272F08C900D8
:10230E002E08C800C830E827A7000230A8009F306A
:10231E0035270A168A11D429FF30C607031CC703B6
:10232E004708803A8312B90083162B08803A83122D
:10233E003902031DA52983162A0846020318AC2963
:10234E00EB272B08C7002A08C600C630E827A700CF
:10235E000230A800A13035270A168A11D42904307C
:10236E008316A1000330A200D429E8274308013ABE
:10237E0003190729023A03191429063A03192629C3
:10238E00033A03192629013A03196D290F3A031945
:10239E006D29013A0319B629D4290B308312430251
:1023AE00031CCA2E4308163A0319CA2E6730831629
:1023BE00A200CA2E3E1CF0298312B201B20A831665
:1023CE0043088312B400831642088312B300003010
:1023DE00F7298312FA30B201B20AB3000030B40109
:1023EE000A128A1508200A168A110730C727CD301F
:1023FE000A128A119C230A168A110038031D0C2A10
:10240E0083164D08FF3A031D132A83160030A201CE
:10241E00A20AC7270A168A11E8274308093A031D9C
:10242E00CA2E04308316A1000330A2000030C72745
:10243E000A168A11CA2E0B3083124302031C2E2A4F
:10244E004308163A03192E2A67308316A200183055
:10245E00A43E840083130008840A00040319F02AA2
:10246E00EE27A708031DF02A03132108183A0319B3
:10247E00F02A6630A100F02AA4308312E700E8307B
:10248E00E801BE000330BF006630C000C101FC147D
:10249E00352BA6308312E700F430E801BE00013080
:1024AE00BF007030C000FE30952AA8308312E700BE
:1024BE00E830E801BE000330BF0083162B088312FC
:1024CE00C10083162A08A42AAA308312E700E80165
:1024DE00831629088312BF00831628088312BE00B4
:1024EE00582AAC308312E7006330E801BE00BF010A
:1024FE0083162F088312C10083162E08A42AAE302D
:10250E008312E700E80183162D088312BF0083169D
:10251E002C088312BE009D30C000FF30C1004E2A31
:10252E00B0308312E7006330E801BE00BF018316AE
:10253E0033088312C100831632088312C0004E2A5C
:10254E00B2308312E700E801831631088312BF0010
:10255E0083163008902AB4308312E700FA30E8016F
:10256E00BE00BF01C001C101FC10352BB630831275
:10257E00E7003C30B62AB8308312E7009030542A78
:10258E00BA30C32ABE308312E700E801C201352BF0
:10259E008312C201C20A352B0230DE2A0330DE2A34
:1025AE000430DE2A0530DE2A0630DE2A073083129A
:1025BE00C200352BBC308312E700E801E730BE00C5
:1025CE000330BF00B92AC6308312E7000130E8009D
:1025DE00E52AEB272108043A0319432A013A031985
:1025EE00502A033A03195C2A013A03196B2A0F3A4F
:1025FE000319782A013A0319862A033A0319972AEE
:10260E00013A0319A72A073A0319B22A013A031904
:10261E00BD2A033A0319C22A013A0319C72A1F3ADF
:10262E000319C92A013A0319CF2A033A0319D32AE7
:10263E00013A0319D52A073A0319D72A013A031981
:10264E00D92A033A0319DB2A013A0319DD2A0F3A74
:10265E000319E12A7E3A0319EA2A352B0F30831229
:10266E00B2000A30A400A50183162108FD3E831294
:10267E00A600FF3003180030A7000A128A15C223E5
:10268E000A168A112408B3000A30AC00AD01831675
:10269E002108FD3E8312AE00FF3003180030AF005C
:1026AE000A128A15A9200A168A112C08B4000030C5
:1026BE00A5270A168A11E827680867040319A72BAD
:1026CE004208FF3A0319932B420AB90067088400A7
:1026DE008317681C83130008BA00840A0008BB0025
:1026EE007B2B3B0DBB0CBA0CB90B782BE8273A1C95
:1026FE008A2B1330B2001030B301B4000130A5277D
:10270E000A168A11A72B0F30B201B300B4000130A4
:10271E00A5270A168A11A72B0030FC180130B2002B
:10272E00670884008317681C83130008B300840AAB
:10273E000008B40001300A128A1508200A168A1100
:10274E00E8274308053A0319B02B4308063A031D40
:10275E005E2C6808670403195E2C8316CF01CF0A1E
:10276E0083124208FF3A0319012C420AB900670886
:10277E0084008317681C83130008BA00840A0008BB
:10278E00BB00CC2B3B0DBB0CBA0CB90BC92BE827ED
:10279E003A1CEA2B420AB9000130BA000030BB00E5
:1027AE00DB2B0310BA0DBB0DB90BD82BBA09BB0925
:1027BE00670884008317681C83133A088005840A0F
:1027CE003B0880055E2C420AB9000130BA00003089
:1027DE00BB00F42B0310BA0DBB0DB90BF12B670820
:1027EE0084008317681C83133A088004840A3B080C
:1027FE0080045E2C670884008317681C831300080E
:10280E00B900840A0008BA00803AFF0083307F02C4
:10281E00031D132CE830390203182A2CE827670809
:10282E0084008317681C83130008B900840A00080B
:10283E00BA00803AFF007F307F02031D282C9D30A6
:10284E0039020318322CE827670884008317681CA6
:10285E0083130A30392CE827670884008317681C15
:10286E00831301308007840A0318800A67088400E6
:10287E008317681C83130008B900840A0008BA0085
:10288E003F08803ABB003A08803A3B02031D512CA8
:10289E0039083E0203185E2CE82767088400831768
:1028AE00681C83133E088000840A3F088000E827D6
:1028BE004308073A0319672C4308083A031D192DDC
:1028CE00680867040319192D8316CF01CF0A8312E6
:1028DE004208FF3A0319B82C420AB900670884006F
:1028EE008317681C83130008BA00840A0008BB0013
:1028FE00832C3B0DBB0CBA0CB90B802CE8273A1C71
:10290E00A12C420AB9000130BA000030BB00922C53
:10291E000310BA0DBB0DB90B8F2CBA09BB09670892
:10292E0084008317681C83133A088005840A3B08C9
:10293E008005192D420AB9000130BA000030BB00E3
:10294E00AB2C0310BA0DBB0DB90BA82C6708840075
:10295E008317681C83133A088004840A3B0880049A
:10296E00192D670884008317681C83130008B900AB
:10297E00840A0008BA00803AFF0083307F02031DEC
:10298E00CA2CE83039020318E12CE82767088400C6
:10299E008317681C83130008B900840A0008BA0064
:1029AE00803AFF007F307F02031DDF2C9D303902FD
:1029BE000318E92CE827670884008317681C831323
:1029CE00F630F02CE827670884008317681C831301
:1029DE00FF308007840F00080318000AFF00FF3E37
:1029EE0080008403670884008317681C8313000823
:1029FE00B900840A0008BA00803ABB004108803A48
:102A0E003B02031D0C2D400839020318192DE8272F
:102A1E00670884008317681C831340088000840AAB
:102A2E0041088000E8274208073A031D332D420A69
:102A3E00B900670884008317681C83130008BA0066
:102A4E00840A0008BB002E2D3B0DBB0CBA0CB90B33
:102A5E002B2DE8273A18372D43080A3A031D602D0F
:102A6E003C30BC01A7007F30A801A80A35270A1602
:102A7E008A11420AB9000130BA000030BB004A2D5B
:102A8E000310BA0DBB0DB90B472DBA09BB09670868
:102A9E0084008317681C83133A088005840A3B0858
:102AAE0080050830A4000030D8260A168A110313B8
:102ABE00A20183124308033A031D962D83162108A3
:102ACE00663A031D822D0317470803133D06031DA7
:102ADE00742D0317460803133C06031D7F2D0317A1
:102AEE000430A701A70AC601C7010313A100962D42
:102AFE000317A701962D1930A10A2102031C892D57
:102B0E000430A1004F080319962DA430CF01831273
:102B1E00A7001C30A800813035270A168A11E82735
:102B2E00430BCA2EEE27A701C601C70103134F0898
:102B3E000319AB2DA430CF018312A7001C30A800BF
:102B4E00813035270A168A1183162208683A031D2A
:102B5E00C62DCB30A2010A128A1116230A168A112B
:102B6E0087100830A4000030D8260A168A110730C4
:102B7E00E827A4000030D8260A168A11CA2EA20110
:102B8E00A20ACA2E0B3083124302031C992E43084D
:102B9E00163A0319992E83164B08FF3A031DE72D9B
:102BAE00FA308312A7000F30A801A901AA01AB00C9
:102BBE000130AC00CB300A128A110A210A168A1192
:102BCE0003308312A4000130D8260A168A1107306A
:102BDE00E827A4000130D8260A168A11E827071024
:102BEE006B2E0030BD0103270A168A110313BE187F
:102BFE008E2E003028270A168A118E2E0030BD0127
:102C0E00BD0A03270A168A11003028270A168A11D0
:102C1E008E2E0230BD00003003270A168A110313D0
:102C2E00BE188E2E003028270A168A118E2E0330DB
:102C3E00BD00003003270A168A110313BE188E2E0C
:102C4E00003028270A168A118E2E0430BD0000305F
:102C5E0003270A168A110313BE188E2E003028275A
:102C6E000A168A118E2E0530692E0630BD000030F0
:102C7E0003270A168A110313BE188E2E003028273A
:102C8E000A168A118E2E0730BD00003003270A1651
:102C9E008A110313BE188E2E003028270A168A11A9
:102CAE008E2E0830692E0930BD00003003270A161B
:102CBE008A110313BE188E2E003028270A168A1189
:102CCE008E2E0A30BD008E2E43080B3A0319F82DB6
:102CDE00073A0319052E013A0319102E033A031968
:102CEE001E2E013A03192C2E1F3A03193A2E013AC1
:102CFE0003193C2E033A03194A2E013A0319582E92
:102D0E00073A03195A2E013A0319682E8E2E0A30ED
:102D1E00E827B2001130B3003D08B4000030A527FB
:102D2E000A168A11E8274308093A031DA32E043018
:102D3E008316A1006830A2008312430BCA2E0830FE
:102D4E000710A4000030D826CB300A128A111623A1
:102D5E000A168A1187108316A201CA2E831622081C
:102D6E00003A03198028013A0319BB28033A0319C4
:102D7E00E129013A0319222A643A0319C92D0F3A9F
:102D8E0003192E2ACA2EEB272208673A03190800C8
:102D9E00220803190800683A031908000A128A115A
:102DAE008E29A60008302402031CE62E26080319DD
:102DBE00E42E0F30EE27E400E62EEE27E401E8279E
:102DCE0026080130A5000319F72E240AF02E031051
:102DDE00A50DFF3E031DEE2E2508EE27E404080088
:102DEE00240AFB2E0310A50DFF3E031DF92E250808
:102DFE00FF3AEE27E4050800E827A700271C0A2F54
:102E0E00E82707150C2FE82707110230A400270822
:102E1E00D8260A168A110630E827A4000030D826D4
:102E2E000A168A1103133E1D08008312271C222F37
:102E3E00E8270515242FE8270511A401A40A270861
:102E4E00D82EE827A700271C2F2FE8270515312F8E
:102E5E00E8270511A401A40A2708D82EAC00AB015F
:102E6E00AD0128082D0203180800EE270C183C2F80
:102E7E00E8272D082C0703178D0083168C130C14CE
:102E8E000C18472F83120C080313AB002D082707CD
:102E9E00A9008400831300082B060319A32FEE2725
:102EAE008C18562FE8272D082C0703178D000313B7
:102EBE002D082707A90084008313000803178C0030
:102ECE000313AA018316D608031D692F8B1F732FB8
:102EDE008312AA01AA0A8B13EE2755308C130C15F8
:102EEE008D00AA308D008C148C187B2F0C11E827C6
:102EFE000D122A08031D8B170A30A400A501F12715
:102F0E000A168A11EE270C18892FE8272D082C0790
:102F1E0003178D0083168C130C140C18942F831228
:102F2E000C080313AB002D082707A9008400831398
:102F3E0000082B06031D562FAD0A382FB500350895
:102F4E000319B72F3208EE27E200E8273308EE27E1
:102F5E00E100E8273408EE27E0000F30E305080013
:102F6E003208EE27DF00E8273308EE27DE00E827D9
:102F7E003408EE27DD00F030E30508008710080066
:102F8E00E827A4007730A4058830EE27E305E8276C
:102F9E002408EE27E304080087140800EE2718081B
:102FAE001906031900341808903E84008317000890
:102FBE00E827A400EE270730980A9805E82724088A
:102FCE0008008312031308008316031308008316E8
:102FDE00031708002508240403190800FA30A60078
:102FEE00A60BF72F0130A4020030031CA503A50287
:102FFE00F12FFF1B0A2883137F1883170008840AFA
:10300E000319FF0A08007F087F398A000408840A22
:10301E000319FF0A82000A34FA348C349834783457
:10302E0019340934DA3408341834483429340F3456
:10303E00A8340D344D34E9342F34FD34FF34F734D5
:10304E00E934D434D8341434C9349834BA344434CA
:10305E00AD34FD34A034AE34953440348B34A034CA
:10306E008134BD34783487347034F1346834EB34C1
:10307E0061346C345B3467345534D3344F34A734F5
:10308E004A34DA3445346634413442343D3469349A
:10309E003934D63435348234323469342F3486346C
:1030AE002C34D534293454342734FD342434CE34DE
:1030BE002234C4342034DC341E3414341D346A34C7
:1030CE001B34DB3419346534183407341734BF34E9
:1030DE0015348C3414346C3413345D3412345F3440
:1030EE0011347134103491340F34BE340E34F8343C
:1030FE000D343E340D348F340C34EA340B344E34EC
:10310E000B34BC340A3431340A34AF340934343419
:10311E000934C034083453340834EB34073489345A
:10312E0007342D340734D63406348334063435341C
:10313E000634EB340534A5340534623405342334B7
:10314E000534E7340434AF3404347934043446346B
:10315E00043416340434E8340334BC340334933466
:10316E0003346C34033446340334233403340134CF
:10317E000334E0340234C2340234A43402348934C9
:10318E0002346E340234553402343D340234263463
:10319E00023410340234FB340134E7340134D434B5
:1031AE000134C2340134B0340134A03401349034CB
:1031BE0001348134013472340134643401345734AF
:1031CE0001344A3401343E3401343334013427346B
:1031DE0001341D3401341234013409340134FF3406
:1031EE000034F6340034EE340034E5340034DD348B
:1031FE000034D6340034CE340034C7340034C134F5
:10320E000034BA340034B4340034AE340034A8344C
:10321E000034A33400349D34003498340034933495
:10322E0000348F3400348A340034863400348134D0
:10323E0000347D3400347934003476340034723402
:10324E0000346E3400346B3400346834003465342A
:10325E000034623400345F3400345C34003459344A
:10326E0000345734003454340034523400344F3464
:10327E0000344D3400344B34003449340034463479
:10328E0000344434003443340034413400343F3489
:10329E0000343D3400343B3400343A340034383496
:0E32AE00003437340034353400343434003406
:1038D8000313113081118312031785006400080057
:1038E8000130FC067C1C7C2C83120313871408000F
:1038F8008312031387100800083408340834083486
:103908000834083400340F34FF34B8340B34B83476
:103918000B34FF34FF347E088A007F0882008F242E
:103928000A168A158000840A04087D0603190034E3
:10393800FF0A0319FE0A932C83168F150F108312A2
:103948008501F3308316850083128601DD308316E6
:1039580086008312870183168701080083160317E0
:10396800880189010313061415148612831286161A
:1039780087170716000000008316031301178B1022
:103988000B12D6010800C23083120313A400C03002
:10399800E1240A168A15003A03190800831603134E
:1039A8003A08C0070318C10A3B08C1073808C2070C
:1039B8000318C30A3908C3070800A500FD1C003412
:1039C8002508840083160317680883138000840A77
:1039D80069088000831203132408840083160317E0
:1039E80066088000840A670880000134FB010A1217
:1039F8008A114E260A168A150C30F0007B084326D9
:103A08000A168A15113E84008317001F3D2E0C30BC
:103A1800F0007B0843260A168A15173E8400000822
:103A2800F300840A0008F400840A0008F500840AF8
:103A38000008F6000C30F0007B0843260A168A15A9
:103A4800133E84000008F700840A0008F800840A7E
:103A58000008F900840A0008FA007606031D3E2DC6
:103A680075087906031D3E2D74087806031D3E2D42
:103A7800730877060C30F000031D212E7B084326BF
:103A88000A168A15F300133EF40084000C308001F6
:103A9800840A8001840A8001840A8001F0007B087E
:103AA80043260A168A15123E840000080F390F3A79
:103AB8000C30F000031D842D7B0843260A168A1556
:103AC800113E84000C308017F0007B0843260A164C
:103AD8008A151B3E840080080319382E0C30F0002C
:103AE8007B0843261B3E840000080A128A11012124
:103AF8000A168A150A128A114E260A168A15382EAF
:103B08007B0843260A168A15123E8400000E0F39D8
:103B1800F300F30AF30E000873060F3973068000EA
:103B28000C30F0007B0843260A168A15123E8400E2
:103B3800000E0F39F3000C30F0007B0843260A16FC
:103B48008A15123E840000080F39F40073087402C5
:103B58000C30F0007B080318612D43260A168A15DD
:103B68001B3E840080080319382E0C30F0007B08B7
:103B780043260A168A15113E84000C300013F00003
:103B88007B0843260A168A15123E8400F030800509
:103B98000C30F0007B0843260A168A15123E840072
:103BA8000F3080050C30F0007B0843260A168A1572
:103BB800F300133EF40084000C308001840A800175
:103BC800840A8001840A8001F0007B0843260A16D3
:103BD8008A15F300173EF40084000C308001840A33
:103BE8008001840A8001840A8001F0007B08432652
:103BF8000A168A15113E84000C308013F0007B08E9
:103C080043260A168A151B3E84000C308001F000FA
:103C18007B0843260A168A15103E84000C30800162
:103C2800F0007B0843260A168A15103E8400000817
:103C38008400FF3083138000382E7B084326133E10
:103C48008400013080070030840A0318013E031DF8
:103C580080070030840A0318013E031D80070030E6
:103C6800840A0318013E80070A128A114E260A1692
:103C78008A150730FB0A7B0203180800FB2CF100A9
:103C8800F20170087118F2070310F00D0310F10C1F
:103C9800F108031D452E72080800FD276508F03855
:103CA800AC260A168A15FD2765080F385B2EFA27F9
:103CB800A500FD276A060319672EFA272508FD27A0
:103CC800EA00AA0108001E302A0203186D2EAA0A6B
:103CD8000800FF30AA01FA27A5062508A400063027
:103CE8000310A40CFF3E031D742E241C7F2E0630E7
:103CF8008316D90008002508A40007300310A40C77
:103D0800FF3E031D822E241C8D2E07308316D900FA
:103D180008002508A40004300310A40CFF3E031D6E
:103D2800902E241C9B2E04308316D90008002508E9
:103D3800A40005300310A40CFF3E031D9E2E241C76
:103D4800A92E05308316D90008008316D90108006A
:103D5800FA27A800831654060319B92E83122808D7
:103D68008316D4000317AC0108001E3003172C0279
:103D78000318C02EAC0A0800031354098312A800C4
:103D8800831653068312A7002808A7058316D300B5
:103D980083122708F1260A168A15F72753080317EE
:103DA8002B060319DE2E031353080317AB00A001DB
:103DB800A101080005302102DC3003192002031894
:103DC800E92EA00A0319A10A0800AA30A0000530AC
:103DD800A1000313D3175308F12E8312A5000A2F4D
:103DE800A601A60A2A2F0230082F0330082F043014
:103DF800082F0530082F0630082F0730082F083005
:103E0800082F0930082F0A30A6002A2F2508013A62
:103E18000319F42E033A0319F92E063A0319FD2E55
:103E28000C3A0319012F893A0319F72E033A03199B
:103E3800FB2E013A0319052F073A0319FF2E0C3AF6
:103E48000319032F013A0319072F2C2F2608E027FF
:103E58000800F4270A168A150038031D3E2F83161A
:103E6800BE1E3E2FCE0103170C30A301A401A501ED
:103E7800A601E02F83165908073A031D4C2F0C3072
:103E8800CE0A4E02031C08000A30CE000B30E02F89
:103E9800CE015908063A031D5B2F66300317A30AA3
:103EA8002302031C08006430A3000D30E02F031721
:103EB800A30103135908043A031D6C2F0C30031790
:103EC800A40A2402031C08000A30A4000E30E02FC4
:103ED8000317A40103135908053A031D7D2F0C305D
:103EE8000317A50A2502031C08000A30A5000F3095
:103EF800E02F0317A50103134108803AFF007E3025
:103F08007F02031D892F3F30400203188D2F123086
:103F1800E02FF7274308803AFF007E307F02031D19
:103F2800972F3F30420203189B2F1130E02FF727BD
:103F38002508803A8312A50083164108803A831227
:103F48002502031DAA2F8316400824020318B62F42
:103F5800F7272508033AE83003192406031908004F
:103F68001330E02FF7274108803A8312A500831603
:103F78002708803A83122502031DC52F83162608B9
:103F880040020318D12FF7272708FE3A703003198B
:103F98002606031908001430E02FF72755080319DF
:103FA800D72F1030E02F0C300317A60A2602031C67
:103FB80008001630A601E02FFA27A400FD27190AE9
:103FC80007391806031908001908903E8400FA27D3
:103FD800240883178000FD270730990A99050800EF
:103FE80064080139080083160313080083120313B9
:083FF8000800831603170800FE
:04400E0092CBFFFF53
:00000001FF
