:040000008A110D282C
:10000800FE00030EF6000408F7000A08F8008A113B
:10001800862E8A15CC2C0130972BBA30BD0088303B
:10002800BE00A8238A112A268A1157238A11003074
:10003800BD008930BE00A8238A1125268A11572BB6
:10004800831691010A308312A000A1014B208A1166
:10005800303097238A11A001A00AA1014B208A11F0
:10006800303097238A11A001A00AA1014B208A11E0
:100078000C3097238A11A001A00AA1014B208A11F4
:10008800013097238A110A30A000A1014B280130C2
:10009800A0020030031CA103A102200A0319210AAF
:1000A80003190800A2017D30A20A220203184B2876
:1000B8005728DA000A30A700A8015508AA005408F2
:1000C800A90018238A112708D9000A30A700492651
:1000D8008A1104258A1151268A1118238A112708A2
:1000E800D8000A30A700643049268A1104258A11ED
:1000F80051268A1118238A112708D70041268A1108
:100108005508A3005408A20004258A1151268A1113
:1001180018238A112708D6005A080D3A031D982873
:100128008316EB01EB0AAE0183125A0BA228831641
:100138002E080319A128AE01A228AE0A83125A0874
:10014800033A031DAF288316AE08031DAE28AE017F
:10015800AE0AAF28AE0383125A080F3A031DBC2813
:100168008316AE08031DB928AE0A2E0BBC28EB0176
:10017800F3308312BD008830BE000530BF00C001D7
:10018800A8238A112A268A1157238A11CB30BD0049
:100198008830BE005608BF00C0015708C100C20120
:1001A8005808C300C4015908C500C601A8238A110C
:1001B80025268A1157238A11E630BD008830BE00F3
:1001C800A8238A1131080319F728AE08031DF72858
:1001D8006B080319F728ED308312A0008830A100BE
:1001E800B230A20093258A158B278A1157238A11CA
:1001F800D930BD008830BE00A8238A113108031900
:1002080012292E0B12296B0803191229E0308312C8
:10021800A0008830A100B230A20093258A1590274B
:100228008A11572BE9000A30A700A8015408840056
:1002380083130008A900840A0008AA0018238A1159
:100248002708E0000A30A700A801A000A10117268E
:100258008A1104258A1151268A1118238A11270820
:10026800DF000A30A7006430A801A000A10117260A
:100278008A1104258A1151268A1118238A11270800
:10028800DE0041268A1117268A1104258A11512673
:100298008A1118238A112708DD000A30A4006D2668
:1002A8008A11FC228A11E4000A30A400A0006D26FD
:1002B8008A113C238A11FC228A11E3000A30A40027
:1002C80072268A11FC228A11E2000A30A400A000DA
:1002D80072268A113C238A11FC228A11E1000A3015
:1002E800A40081268A11FC228A11E8000A30A400A1
:1002F800A00081268A113C238A11FC228A11E7007A
:100308000A30A40077268A11FC228A11E6000A30F6
:10031800A400A00077268A113C238A11FC228A11A6
:10032800E50069080D3A031D9E298316EC01EC0AC5
:10033800AF01B00183126908033A031DAB290230EB
:1003480083162F02031CAA29AF01AB29AF0A831217
:10035800690BB6298316AF08031DB5290230AF0013
:10036800B629AF0383126908073A031DC32903306E
:1003780083163002031CC229B001C329B00A8312B4
:100388006908053A031DD0298316B008031DCF2933
:100398000330B000D029B00383126908093A031D5D
:1003A800E5298316F9258A1109300002031CE12981
:1003B8008316F9258A118001E5298316F9258A1102
:1003C800800A69080B3A031DF9298316F9258A1151
:1003D80080080319F4298316F9258A118003F9295D
:1003E8008316F9258A110930800069080F3A031D20
:1003F8000F2A023083162F02031C042AEC01052A57
:10040800AF0A83125408A0000630A101A2000030F0
:100418008A1520278A115D08A000E830A101A200F2
:100428000330A3007E238A112008D5002108D600B6
:100438005E08A0006430A101A200A3017E238A11F6
:1004480020085507D70021080318210A5607D800A5
:100458005F08A0000A30A101A200A3017E232008A2
:100468005707D90021080318210A5807DA0060083D
:100478005907DB000030031801305A07DC00540824
:1004880084005B0883138000840A5C088000540899
:10049800023E84000A30A00061088A15DA268A1113
:1004A800D5006208550780005408033E84000A30CE
:1004B800A00063088A15DA268A11D5006408550752
:1004C80080005408043E84000A30A00065088A159C
:1004D800DA268A11D5006608550780005408053EBB
:1004E80084000A30A00067088A15DA268A11D50028
:1004F8006808550780001530BD008930BE00A82364
:100508008A112A268A1157238A11A830BD008830FB
:10051800BE005D08BF00C0015E08C100C2015F08DF
:10052800C300C4016008C500C601A8238A11AF082A
:10053800031DAB2A31080319AB2A6C080319AB2A2F
:10054800300A8312A000B2308A15E8268A112526BF
:100558008A1157238A117E30BD008830BE00610899
:10056800BF00C0016208C100C2016308C300C40122
:100578006408C500C601A8238A112F0BD02A3108A8
:100588000319D02A6C080319D02A300A8312A00054
:10059800B2308A15E8268A118A158B278A115723C3
:1005A8008A119330BD008830BE006508BF00C001C5
:1005B8006608C100C2016708C300C4016808C50015
:1005C800C601A8238A112F08023A031DF82A310808
:1005D8000319F82A6C080319F82A300A8312A000B4
:1005E800B2308A15E8268A118A1590278A11572B66
:1005F800A6000830A700A8012608A50007300310A8
:10060800A50CFF3E0310031D042B280D2504A8008C
:100618000310A60D24082802031C142B2408A80282
:10062800A70B002B28080800280827040319372BD4
:10063800AB01AB0AA81B242B0310A70DA80D1D2B7B
:1006480028082A02031D2A2B27082902031C332BFA
:100658002708A9022808031CAA03AA020310A80C49
:10066800A70CAB0B242B2A08A8002908A700080010
:10067800A100A30120080319552BA201A20AA01B5F
:10068800482B0310A00D422B0310A30D20082102B4
:10069800031C522B2008A10223140310A00CA20B48
:1006A800482B23080800AB00A8000310A80D03106E
:1006B800A80D0310280D123EA90088300318013E2A
:1006C800AA002608290784002A0803182A0AFF0016
:1006D8008A1500208A1197238A112708840083131A
:1006E800800803190800270884000008E8258A11F3
:1006F800A70A712BA401A501201C882B2208A40796
:100708000318A50A2308A5070310A20DA30D0310BB
:10071800A10CA00C21082004031D802B2508A10092
:100728002408A0000800A50068268A11BC258A11A3
:10073800F83073258A112508F03973258A11250E9A
:10074800F03973250911080083163F30E701E801E5
:10075800E600E9016908B23E840014308313800181
:10076800E90A69020318652CAE2B63268A15002056
:100778008A11253A03194A2C3E08FF003D088400D7
:100788008A1500208A11D30083166708B23E8400B8
:100798008312530883138000BD0A0319BE0A831607
:1007A800E70A0319E80A652C1F268A11E500E60AFC
:1007B8006508840080080319612C65080A268A11D7
:1007C800E50AE70A0319E80ADC2B1F268A11E0006C
:1007D800840A0008E100E60AE60A8312AD008316DF
:1007E80060088312AC00CC30AE001030AF00B0010E
:1007F80074248A118316E9017C268A110319612C55
:100808006908CC3E0A268A11E90AE70A0319E80AA8
:10081800002C1F268A11E200E301E60AE60A6308B3
:100828008312AD00831662088312AC00CC30AE0090
:100838000A30AF00B00174248A118316E9017C26BE
:100848008A110319612C6908CC3E0A268A11E90A23
:10085800E70A0319E80A232C1F268A11E400E60A8E
:10086800E60A6708B23E840064088000E70A0319B4
:10087800E80A612C63268A1500208A118316E40091
:100888006708B23E840064088313392CBD0A031933
:10089800BE0A3E08FF003D0884008A1500208A1120
:1008A800633A0319302C073A03190D2C173A031928
:1008B800D82B0B3A0319E92B3E2C8312BD0A0319D6
:1008C800BE0A831263268A1500208A110038031D88
:1008D800B92B83166708B23E840083138001080091
:1008E800FF30B800B9002E08BC005D268A11031D30
:1008F8007F2C02302F02031CFA2C831203135D266F
:100908008A11031D892C25302F020318FA2C831213
:100918000313AD1F9F2C2F080A3A3004031D9F2C88
:100928003C0884002D3083138000BC0AAC09AD0953
:10093800AC0A0319AD0A2D08B7002C08B600300818
:10094800A8002F08A7003708AA003608A90018230E
:100958008A112708203E840083170008B100B80ACE
:100968000319B90A38083C07B20084003108831318
:1009780080003008A1002F08A0003708A30036081F
:10098800A20004258A112108B7002008B600370400
:10099800031DA32C0230A000A1013808013EA200CB
:1009A80039080318013E003EA3002E258A112108AC
:1009B800BB002008BA00FF30BA07031CBB03BB1BEF
:1009C800FA2C3A083C07B10084000008B500382624
:1009D8008A110008B3003A083C07B40084003308C1
:1009E800800038268A1135088000DF2C8312031313
:1009F80038083C07B100013E8400831380010800D9
:100A0800A401A501210820040319292DA601A60A7D
:100A1800A11B122D0310A00DA10D0B2D0310A40D69
:100A2800A50D21082302031D1B2D20082202031CEB
:100A3800252D2008A2022108031CA303A3022414C5
:100A48000310A10CA00CA60B122D2508A100240848
:100A5800A0000800A501A11F382DA009A109A00A1E
:100A68000319A10AA501A50AA31F412DA209A309DB
:100A7800A20A0319A30A0130A506A601A7012108A5
:100A880020040319662DA401A40AA11B4F2D0310ED
:100A9800A00DA10D482D0310A60DA70D21082302B6
:100AA800031D582D20082202031C622D2008A202D3
:100AB8002108031CA303A30226140310A10CA00CF5
:100AC800A40B4F2D250803196E2DA609A709A60A00
:100AD8000319A70A2708A1002608A0000800A000FB
:100AE800A201831609108312091083160030891099
:100AF8008312A01B0130A100211C862D8312031331
:100B08008914892D831203138910083009140910D8
:100B18000310A00DA20A220203180800752DA601D1
:100B2800A50126082207A3008400800803190800ED
:100B3800250856268A1500208A110038031908004E
:100B4800250856268A1500208A11A30026082207A0
:100B5800A4008400831300082306031DBA2D260869
:100B68002207A300840020308000A50AA60A952D3C
:100B7800FC3073258A11C5258A11A400A41F08001A
:100B8800BC2DA101A201A3010310A10D83162F26DC
:100B98008A118918A10A0830A30A2302031CC92D47
:100BA800A3010310A20D83162F268A118918A20A01
:100BB8000830A30A2302031CD62DF0302105A0001B
:100BC800220E0F3920070800A50068268A11BC25C7
:100BD8008A11FA3073258A112508F03973258A118C
:100BE800250EF0397325091108002F088312D50046
:100BF8005D300310D50D0310D50D5507D6008316AB
:100C0800300883125607D7008400080084000008C3
:100C18008312D30083166708B23E840083125308F8
:100C2800800083160800540884000008A200840A83
:100C38000008A300080083166608840083130008D0
:100C480008008312B230A601A70001348312B23023
:100C5800A601A7000034091083120910091409100D
:100C680083168914831208003C08B1003A08B102BF
:100C780038083107B200840008000A30A700E830BD
:100C8800A801A0000330A1000800A801A000A1014C
:100C98005508A3005408A20008002108AA0020084B
:100CA800A90008002007840021080318210AFF0072
:100CB80008003008803AFF0080307F0208003E08B4
:100CC800FF003D08840008008316091183120915E6
:100CD80008005408033E8400000808005408023E37
:100CE8008400000808005408043E84000008080036
:100CF8006908CC3E8400800808005408053E84003A
:100D0800000808000B198B1EAB2EB3308312031397
:100D18008100B4268A117108FB007008FA007B086C
:100D2800F1007A08F00008278A117108FB007008A2
:100D3800FA007B08F1007A08F0003E278A11F90AC8
:100D48007908643A031DAA2EFF30B1060B11780802
:100D58008A0077088400760E8300FE0E7E0E090056
:100D6800F201F3018316081088100811881108167B
:100D78008816081783120814881008118811F401BE
:100D88001430F40A7402031CC42E081A7214881A48
:100D9800F214081B72158814081008118811F40140
:100DA8001430F40A7402031CD42E081AF215881A97
:100DB8007216081BF2160815081088108811F4011D
:100DC8001430F40A7402031CE42E081A7217881AE5
:100DD800F217081B73148815081088100811F401FD
:100DE8001430F40A7402031CF42E081AF314881A37
:100DF8007315081BF315081088100811881173085B
:100E0800F1007208F000080083162D087106031D12
:100E18000F2F2C08700603191B2F7108AD007008DE
:100E2800AC00FC01182FFC0AF001F10108000530A4
:100E38007C02031C172F2D08F3002C08F200F2097E
:100E4800F3097208F0007308F1002A087006F2002E
:100E58002B087106F30070087205F4007108730519
:100E6800F5007108AB007008AA007508F100740855
:100E7800F0000800632FF201F20ADF2F0230612F21
:100E88000330612F0430612F0530612F0630612F48
:100E98000D30612F0E30612F0B30612F0C30612F18
:100EA8000730612F0830612FF201DF2F0F30612FDB
:100EB8001030612F0930612F0A30F200DF2F7108DE
:100EC800003A0319832F013A03199D2F033A031996
:100ED800A22F063A0319A72F0C3A0319AC2F883A08
:100EE8000319B12F013A0319CB2F033A0319D02F55
:100EF800063A0319D52F0C3A0319DA2FED2F70088B
:100F0800013A0319482F033A03195A2F063A0319CD
:100F1800582F0C3A0319442F183A0319542F303A12
:100F28000319582F603A0319582FC03A0319502F44
:100F3800ED2F7008003A0319582FED2F7008003A6A
:100F480003193F2FED2F7008003A03194C2FED2F8E
:100F58007008003A03195E2FED2F7008013A031943
:100F68004A2F033A0319562F063A0319582F0C3AF9
:100F780003195C2F183A0319582F303A0319422FD6
:100F8800603A0319582FC03A0319582FED2F7008EB
:100F9800003A03194E2FED2F7008003A0319462F17
:100FA800ED2F7008003A0319522FED2F7008003A00
:100FB8000319602FED2F290A07392806031908009D
:100FC8002908A03E84007208831380000730A90A0C
:100FD800A90508007E088A007F088200EE278A118A
:100FE8008000840A04087D0603190034FF0A0319E7
:040FF800FE0AF22FCC
:10100000FF1B0A2883137F1883170008840A03191B
:10101000FF0A08007F087F398A000408840A031940
:10102000FF0A8200803481348234833484348534EE
:101030008634873490349134923493349434953494
:1010400096349734883489348A348B348C348D3494
:101050008E348F34983499349A349B349C349D3434
:101060009E349F34D734B434CC34AC343A34253441
:1010700064342534643425346434253464342534AC
:10108000643425346434253464342534643425349C
:101090006434253464340034B134E034BA34C534B3
:1010A0003A342534643425346434253464342534A6
:1010B000643425346434253464342534643425346C
:1010C000643425346434253464340034C934E83459
:1010D000B134B834BA34C5343A34253464342534A0
:1010E000643425346434253464342534643425343C
:1010F000643425346434253464340034CB34A2346D
:10110000BD34BA343A342534643425346434443438
:10111000CB34A234C134CF343A342534643425344A
:10112000643441340034C634F434B634AF343A3421
:1011300025346434253464344334B734B534BB3493
:10114000D8343A3425346434253464344334003498
:10115000D534C534CA34FD34C934E834B634A8347F
:101160003A342534643425346434253464342534E5
:1011700064340034CF34C334C334C534B534E734B5
:10118000D734D334BF34C634BC34BC34B934AB34B4
:10119000CB34BE340034D534C534CA34FD343A348B
:1011A000253464342534643425346434253464347B
:1011B0000034CD34A334D634B934BC34FC343A349E
:1011C0002034CD34A334D634B9340034C834B734E1
:1011D000C834CF34BC34FC343A342034C834B73447
:1011E000C834CF340034D534C534CA34FD34C734A0
:1011F000E534C134E3343A342534643453340034B0
:1012000030343534393432343534313430343034A8
:101210003534323430340034B934A434B334A734E0
:10122000C434A334CA34BD340034C934E834D634A9
:0C123000C334B234CE34CA34FD34003470
:1019420064008001840A0406031900340406A22CF0
:101952008316B3300F140F168F160F1781118112D1
:10196200011481100115831281008B168B17080058
:10197200831628082906031900342808A03E84008B
:10198200831300088312A00083160730A80AA80553
:10199200831220080800A030FC01EE01EF0183133E
:1019A2008400CC308A15A1248A1544308317840020
:1019B20062308A15A1248A154430FD000C30FE00E5
:1019C200EF30FF00203084008A11F22783160130A5
:1019D200EA00EB00EC0083018A15132D3034313418
:1019E20032343334343435343634373438343934A9
:1019F2006134623463346434653466346734683421
:101A020069346A346B346C346D346E346F347034D0
:101A12007134723473347434753476347734783480
:101A220079347A34EC018A1124208A158A15A92482
:101A32008A158A1111208A151030A0002730A100C2
:101A42008A114B208A15C630A0000030A100063052
:101A5200A20000308A15C4278A154430A000013044
:101A6200A1001E30A20014308A15C4278A158A11DB
:101A72000F208A15602D0330EC0A6C020318442DE6
:101A82006C08EA00452DEA01EB016A08EC008A11B4
:101A92000F208A15682DD401D5016D088A115D20A9
:101AA2008A15602DC630D4006D088A1116218A1558
:101AB200602D4430D4006D088A1575258A158A1563
:101AC200B9248A158312ED000D3A03193C2D6C08D6
:101AD200003A03194C2D013A0319532D033A031905
:101AE2005A2D602D8A110D28D9000D3A031D7F2D24
:101AF2008316EA01EA0A8312EE01EF015908033A5A
:101B0200031D8A2D02306E02031C892DEE018A2DDF
:101B1200EE0A590B932DEE08031D922D0230EE00B2
:101B2200932DEE035908073A031DA32DEE08031D5A
:101B3200A02D07306F02031CA22DEF01A32D093047
:101B42009B2DEF0A5908053A031DB62DEE08031D19
:101B5200B12DEF08031DAF2D0730B52DEF03B62DC4
:101B6200EF08031DAF2D0930EF00D701D8010A306D
:101B7200A0005708DA268A157E278A1583170002E5
:101B82000A30031CCB2DA0005708DA268A157E27BF
:101B92008A158001D80A5802031CB82D0330D70ACF
:101BA2005702031CB72D5908093A031DF12D0A30BB
:101BB200A0006E08DA268A1563278A15093000020A
:101BC2000A30A0006E08031CEC2DDA268A15632762
:101BD2008A158001F12DDA268A1563278A15800A73
:101BE20059080B3A031D0F2E0A30A0006E08DA26A0
:101BF2008A1563278A150A308008A0000319082E67
:101C02006E08DA268A1563278A1580030F2E6E085E
:101C1200DA268A1563278A150930800059080F3A97
:101C2200031D242E02306E02031C1A2E8316EA01B3
:101C32001B2EEE0A83125408A0000130A1001E30B0
:101C4200A200143020270C30BD008930BE008A115A
:101C5200A8238A158A112A268A158A1157238A15DA
:101C62006630BD008830BE00540877278A15013ED1
:101C720095278A15023EAD278A15033EA7278A15A6
:101C8200043E9B278A15053EA1278A15063E852715
:101C9200073E84000008CD00CE018A11A8238A15D0
:101CA2008312EE08031D612E831631080319612E7B
:101CB2006A080319612E83126F0AA000B230E82667
:101CC2008A1125268A158A1157238A154C30BD00A0
:101CD2008830BE0054080A3E77278A150B3E9527A6
:101CE2008A150C3EAD278A150D3EA7278A150E3E92
:101CF2009B278A150F3EA1278A15103E85278A1534
:101D0200113EB3278A15123EB9278A15133EBF2703
:101D12008A11A8238A1583126E0B9C2E8316310812
:101D220003199C2E6A0803199C2E83126F0AA000C5
:101D3200B230E8268A158B278A1157238A1532304A
:101D4200BD008830BE005408143E77278A15153E20
:101D520095278A15163EAD278A15173EA7278A159D
:101D6200183E9B278A15193EA1278A151A3E8527F8
:101D72008A151B3EB3278A151C3EB9278A151D3EBC
:101D8200BF278A11A8238A1583126E08023A031DFF
:101D9200D72E831631080319D72E6A080319D72EB6
:101DA20083126F0AA000B230E8268A1590278A11A2
:101DB200572BA200A10120082218A1070310A00D91
:101DC2000310A20CA208031DDC2E21080800A300A8
:101DD200A401A20124082307A1008400800803199A
:101DE200080024082307A100840000083A3A031DD2
:101DF2001E2FA40A24082307A100840000086D3ABC
:101E020003191E2F24082307A1008400303000028A
:101E1200031CFA2E24082307A10084003A30000292
:101E22000318FA2EA20A22082006031DFA2E2408FD
:101E32002307A100840020308000A40AEB2EA70013
:101E4200A501A80122082802031808008316031717
:101E52008C18272F831203132808270703178D00D6
:101E6200031328086A278A1503178C000313A60197
:101E72008B1F3E2FA601A60A8B138316553003171C
:101E82008C130C158D00AA308D008C148C18472FE2
:101E92000C11831203138C13831603170C184D2F86
:101EA2008312031328082707F5278A15A500260899
:101EB200031D8B1728086A278A152506031D272F5D
:101EC200A80A232F5407D5006F085507D6008400AF
:101ED20008002007A30021080318013EA4002308DC
:101EE20084008317241C83130008080084008317CE
:101EF2000008BF00C001540808005407D500580864
:101F02005507D60084000A3484000008CB00CC01B7
:101F1200540808008312B230A601A70002348312CB
:101F2200B230A601A700033484000008C100C20138
:101F32005408080084000008C700C80154080800BB
:101F420084000008C900CA0154080800840000087F
:101F5200C500C6015408080084000008C300C4017B
:101F62005408080084000008CD00CE01540808007F
:101F720084000008CF00D001540808008400000843
:101F8200D100D2010800A700A901220829020318E2
:101F92000800831603170C18CA2F8312031329088B
:101FA2002707F5278A15A600831603170C18D52FC5
:101FB2008312031329082707F5278A15A800260686
:101FC200031DCA2F2808A30029082007A4002108FE
:101FD2000318013EA50024088400831325188317E3
:101FE20023088000A90AC62F03178D0083168C13BD
:0E1FF2000C140C18FA2F83120C0803130800AD
:02400E00C4FFED
:00000001FF
