:100000008A11D82E00308A000408840A820700343E
:100010008034813482348334843485348634873424
:100020009034913492349334943495349634973494
:10003000883489348A348B348C348D348E348F34C4
:10004000983499349A349B349C349D349E349F3434
:10005000E5348E34A634E9349734A834E434BA3421
:10006000BF34E83481349434E734BD349134E73418
:10007000BB349C340034E7349434B534E834AF34C2
:100080009D34E6349834AF34E534A4349A34E534FE
:06009000B034913400348D
:100DB00083018A11DB2E831691018A1160278A1123
:100DC0002130F901FA0000308A1107278A113430E6
:100DD000F901FA0001308A1107278A118A11602768
:100DE0008A112130F901FA0000308A1107278A118F
:100DF0003430F901FA0001308A1107278A11DC30FA
:100E0000F0000530F1008A11C2278A11EE2EFD0094
:100E1000FB0001300310FB0D0310FB0D0310FB0D55
:100E20007B07FC0079087C0784008A1102208A1164
:100E3000D4277A0884008A1102208A110038031905
:100E400008007A0884008A1102208A112A278A1150
:100E5000FA0A192FF800FB278A11E5278A11FA30C0
:100E60003B278A117808F0393B278A11780EF03930
:100E70003B2709110800F300F501EE278A11C2276C
:100E80008A11831600308910F31B0130F400741CA2
:100E90004D2F831203138914502F831203138910CB
:100EA000F6278A11C2278A11083009100310F30DA2
:100EB000F50A7502031C3D2F0A30F000F101C22F24
:100EC0000A30F000F101C2278A113030D4278A118C
:100ED000F001F00AF101C2278A113030D4278A11BB
:100EE000F001F00AF101C2278A110C30D4278A11CF
:100EF000F001F00AF101C2278A110130D4278A11CA
:100F00000A30F000F101C22FF401F501F6010310DF
:100F1000F40DEE278A11C2278A11F6278A11C227FB
:100F20008A1109108316891483128918F40A08306B
:100F3000F60A7602031C882F0A30F000F101C2275E
:100F40008A11F6010310F50DEE278A11C2278A11C6
:100F5000F6278A11C2278A11091083168914831271
:100F60008918F50A0830F60A7602031CA32F0A3006
:100F7000F000F101C227F0307405F30075080F3955
:100F8000730708000130F0020030031CF103F10286
:100F9000700A0319710A03190800F2017D30F20A80
:100FA00072020318C22FCE2FF800FB278A11E52703
:100FB0008A11F8303B278A117808F0393B278A11CB
:100FC000780EF0393B2709110800FC303B278A11C5
:100FD00084278A11F700F71F0800E52F83160910F0
:100FE00083120A300910F000F10108000A300914D8
:100FF000F000F10108008316091183120915080099
:02400E0092EB33
:00000001FF
